:100000000C9464000C9476000C9476000C947600AA
:100010000C9476000C9476000C9476000C94760088
:100020000C9476000C9476000C9476000C942B01C2
:100030000C9476000C9476000C9476000C94760068
:100040000C9476000C9476000C9476000C94760058
:100050000C94760000000001000000000000000089
:100060000403000600000000000000000000000083
:100070000000000000003B003800350032000000A6
:100080003A0037003400310002020202020202028A
:100090000404040404040404030303030303030328
:1000A0000101010101010101010204081020408049
:1000B0000102040810204080010204081020408042
:1000C000804020100804020111241FBECFE5D8E0B3
:1000D000DEBFCDBF20E0A0E6B0E001C01D92A93692
:1000E000B207E1F70E9475010C94A5020C94000080
:1000F00090E0FC01E855FF4F2491FC01E857FF4FC9
:100100008491882399F090E0880F991FFC01E258B0
:10011000FF4FA591B491FC01EC58FF4F859194914C
:100120008FB7F894EC91E22BEC938FBF089590E099
:10013000FC01EC5AFF4F3491FC01E855FF4F24912C
:10014000FC01E857FF4FE491EE2331F1332381F0B6
:10015000343039F0363049F0333051F48FB58F7781
:1001600002C08FB58F7D8FBD03C085B58F7D85BDE6
:10017000F0E0EE0FFF1FEC58FF4FA591B4918FB741
:10018000F894611105C09C91E22FE095E92302C02B
:10019000EC91E22BEC938FBF08953FB7F8948091D8
:1001A000650090916600A0916700B091680022B749
:1001B00008B600FE05C02F3F19F00196A11DB11D24
:1001C0003FBFBA2FA92F982F8827820F911DA11DFD
:1001D000B11DBC01CD0146E0660F771F881F991F36
:1001E0004A95D1F708958F929F92AF92BF92CF9286
:1001F000DF92EF92FF920E94CD004B015C0184EFF1
:10020000C82EDD24D394E12CF12C0E94CD00DC011A
:10021000CB0188199909AA09BB09883E9340A10519
:10022000B10558F021E0C21AD108E108F10888EEC2
:10023000880E83E0981EA11CB11CC114D104E104F6
:10024000F10419F7FF90EF90DF90CF90BF90AF903F
:100250009F908F9008951F920F920FB60F921124C6
:100260002F933F938F939F93AF93BF9380916100A0
:1002700090916200A0916300B091640030916000A1
:1002800020E3230F2D3720F44096A11DB11D05C09A
:1002900023EB230F4196A11DB11D20936000809395
:1002A000610090936200A0936300B093640080911A
:1002B000650090916600A0916700B091680001967A
:1002C000A11DB11D8093650090936600A093670007
:1002D000B0936800BF91AF919F918F913F912F9103
:1002E0000F900FBE0F901F901895789483B782607F
:1002F00083BF83B7816083BF89B7816089BF1EBC1C
:100300008EB582608EBD8FB581608FBD85B58460EE
:1003100085BD85B5806485BD3298319A309A379A0B
:100320001AB880E00E94780081E00E94780082E0A4
:100330000E94780083E00E94780084E00E947800A8
:1003400085E00E94780086E00E94780087E00E94A5
:10035000780088E00E94780089E00E9478008AE0B6
:100360000E9478008BE00E9478008CE00E94780068
:100370008DE00E9478008EE00E9478008FE00E945D
:10038000780080E10E94780081E10E94780082E19B
:100390000E94780083E10E94780084E10E94780046
:1003A00085E10E94780086E10E94780087E10E9442
:1003B0007800C0E0D0E060E080E00E94970060E05C
:1003C00081E00E94970060E082E00E94970060E078
:1003D00083E00E94970060E084E00E94970060E064
:1003E00085E00E94970060E086E00E94970060E050
:1003F00087E00E94970060E088E00E94970060E03C
:1004000089E00E94970060E08AE00E94970060E027
:100410008BE00E94970060E08CE00E94970060E013
:100420008DE00E94970060E08EE00E94970060E0FF
:100430008FE00E94970060E080E10E94970060E0FA
:1004400081E10E94970060E082E10E94970060E0F5
:1004500083E10E94970060E084E10E94970060E0E1
:1004600085E10E94970060E086E10E94970060E0CD
:1004700087E10E9497000E94F30061E080E00E9403
:10048000970061E081E00E94970061E082E00E94B5
:10049000970061E083E00E94970061E084E00E94A1
:1004A000970061E085E00E94970061E086E00E948D
:1004B000970061E087E00E94970061E088E00E9479
:1004C000970061E089E00E94970061E08AE00E9465
:1004D000970061E08BE00E94970061E08CE00E9451
:1004E000970061E08DE00E94970061E08EE00E943D
:1004F000970061E08FE00E94970061E080E10E9438
:10050000970061E081E10E94970061E082E10E9432
:10051000970061E083E10E94970061E084E10E941E
:10052000970061E085E10E94970061E086E10E940A
:10053000970061E087E10E9497000E94F3002097F6
:0E05400009F439CF0E94000036CFF894FFCFA7
:00000001FF
