:100000000C9464000C9476000C9476000C947600AA
:100010000C9476000C9476000C9476000C94760088
:100020000C9476000C9476000C9476000C945A0193
:100030000C9476000C9476000C9476000C94760068
:100040000C9476000C9476000C9476000C94760058
:100050000C94760000000001000000000000000089
:100060000403000600000000000000000000000083
:100070000000000000003B003800350032000000A6
:100080003A0037003400310002020202020202028A
:100090000404040404040404030303030303030328
:1000A0000101010101010101010204081020408049
:1000B0000102040810204080010204081020408042
:1000C000804020100804020111241FBECFE5D8E0B3
:1000D000DEBFCDBF20E0A0E6B0E001C01D92A93692
:1000E000B207E1F70E94A4010C947E030C94000077
:1000F00090E0FC01E855FF4F2491FC01E857FF4FC9
:100100008491882399F090E0880F991FFC01E258B0
:10011000FF4FA591B491FC01EC58FF4F859194914C
:100120008FB7F894EC91E22BEC938FBF089590E099
:10013000FC01EC5AFF4F3491FC01E855FF4F24912C
:10014000FC01E857FF4FE491EE2331F1332381F0B6
:10015000343039F0363049F0333051F48FB58F7781
:1001600002C08FB58F7D8FBD03C085B58F7D85BDE6
:10017000F0E0EE0FFF1FEC58FF4FA591B4918FB741
:10018000F894611105C09C91E22FE095E92302C02B
:10019000EC91E22BEC938FBF08953FB7F8948091D8
:1001A000650090916600A0916700B091680022B749
:1001B00008B600FE05C02F3F19F00196A11DB11D24
:1001C0003FBFBA2FA92F982F8827820F911DA11DFD
:1001D000B11DBC01CD0146E0660F771F881F991F36
:1001E0004A95D1F708958F929F92AF92BF92CF9286
:1001F000DF92EF92FF920E94CD004B015C0184EFF1
:10020000C82EDD24D394E12CF12C0E94CD00DC011A
:10021000CB0188199909AA09BB09883E9340A10519
:10022000B10558F021E0C21AD108E108F10888EEC2
:10023000880E83E0981EA11CB11CC114D104E104F6
:10024000F10419F7FF90EF90DF90CF90BF90AF903F
:100250009F908F90089561E080E00C949700019743
:1002600011F40C942B0160E080E00C9497000F9344
:100270001F93CF93DF938B01EA01019711F461E0A3
:1002800001C060E082E00E9497000130110511F486
:1002900061E001C060E083E00E949700219711F4C3
:1002A00061E001C060E084E0DF91CF911F910F9188
:1002B0000C9497001F920F920FB60F9211242F9358
:1002C0003F938F939F93AF93BF93809161009091E1
:1002D0006200A0916300B09164003091600020E35F
:1002E000230F2D3720F44096A11DB11D05C023EB2F
:1002F000230F4196A11DB11D2093600080936100E2
:1003000090936200A0936300B093640080916500B5
:1003100090916600A0916700B09168000196A11DC0
:10032000B11D8093650090936600A0936700B09321
:100330006800BF91AF919F918F913F912F910F9046
:100340000FBE0F901F901895789483B7826083BF7B
:1003500083B7816083BF89B7816089BF1EBC8EB5BA
:1003600082608EBD8FB581608FBD85B5846085BD8F
:1003700085B5806485BD3298319A309A379A1AB81B
:1003800080E00E94780081E00E94780082E00E9474
:10039000780083E00E94780084E00E94780085E085
:1003A0000E94780086E00E94780087E00E94780032
:1003B00088E00E94780089E00E947800C0E0D0E0E8
:1003C00080E090E00E942F010E94F3000E942B0128
:1003D0000E94F30060E088E00E94970060E089E0FE
:1003E0000E94970040E050E060E070E080E090E024
:1003F0000E94370160E085E00E94970060E086E09F
:100400000E94970060E087E00E94970080E090E003
:100410000E942F010E94F3000E942B010E94F30012
:1004200041E050E061E070E081E090E00E9437013F
:1004300080E090E00E942F010E94F3000E942B01B7
:100440000E94F30041E050E060E070E081E090E065
:100450000E94370180E090E00E942F010E94F3008B
:100460000E942B010E94F30040E050E061E070E048
:1004700081E090E00E94370180E090E00E942F012F
:100480000E94F3000E942B010E94F30040E050E024
:1004900061E070E080E090E00E94370180E090E051
:1004A0000E942F010E94F3000E942B010E94F30082
:1004B00041E050E061E070E080E090E00E943701B0
:1004C00080E090E00E942F010E94F3000E942B0127
:1004D0000E94F30040E050E060E070E081E090E0D6
:1004E0000E94370180E090E00E942F010E94F300FB
:1004F0000E942B010E94F30040E050E061E070E0B8
:1005000080E090E00E94370180E090E00E942F019F
:100510000E94F3000E942B010E94F30040E050E093
:1005200060E070E080E090E00E94370180E090E0C1
:100530000E942F010E94F3000E942B010E94F300F1
:1005400041E050E061E070E081E090E00E9437011E
:1005500080E090E00E942F010E94F3000E942B0196
:100560000E94F30040E050E060E070E081E090E045
:100570000E94370180E090E00E942F010E94F3006A
:100580000E942B010E94F30040E050E061E070E027
:1005900080E090E00E94370180E090E00E942F010F
:1005A0000E94F3000E942B010E94F30041E050E002
:1005B00060E070E080E090E00E94370180E090E031
:1005C0000E942F010E94F3000E942B010E94F30061
:1005D00040E050E061E070E080E090E00E94370190
:1005E00080E090E00E942F010E94F3000E942B0106
:1005F0000E94F30041E050E060E070E081E090E0B4
:100600000E94370180E090E00E942F010E94F300D9
:100610000E942B010E94F30041E050E061E070E095
:1006200080E090E00E94370180E090E00E942F017E
:100630000E94F3000E942B010E94F30040E050E072
:1006400060E070E081E090E00E94370180E090E09F
:100650000E942F010E94F3000E942B010E94F300D0
:1006600040E050E061E070E080E090E00E943701FF
:1006700080E090E00E942F010E94F3000E942B0175
:100680000E94F30041E050E061E070E081E090E022
:100690000E94370180E090E00E942F010E94F30049
:1006A0000E942B010E94F30041E050E061E070E005
:1006B00080E090E00E94370180E090E00E942F01EE
:1006C0000E94F3000E942B010E94F30040E050E0E2
:1006D00060E070E080E090E00E94370180E090E010
:1006E0000E942F010E94F3000E942B010E94F30040
:1006F000209709F465CE0E94000062CEF894FFCFE7
:00000001FF
